S025000053414D44323120436C6F636B2053657475702042617265204D6574616C2E737265638D
S113000078240020290300002503000025030000B4
S113001000000000000000000000000000000000DC
S113002000000000000000000000000025030000A4
S1130030000000000000000025030000250300006C
S1130040250300002503000025030000250300000C
S113005025030000250300002503000025030000FC
S113006025030000250300002503000025030000EC
S113007025030000250300002503000025030000DC
S113008025030000250300002503000025030000CC
S113009025030000250300002503000025030000BC
S11300A025030000250300002503000025030000AC
S11300B00000000010B5064C2378002B07D1054B37
S11300C0002B02D0044800E000BF0123237010BDC0
S11300D0340400200000000024060000084B10B582
S11300E0002B03D00749084800E000BF0748036815
S11300F0002B00D110BD064B002BFBD09847F9E72D
S1130100000000003804002024060000240600003B
S11301100000000070470000034B00221A725A725C
S11301209A72DA727047C0460004004010B5624A01
S113013053681E218B431C390B4353605F4B9A8ACF
S11301405F490A409A829A8A5E491140802292004D
S11301500A439A829A8A80218A439A829A8A4039E7
S11301608A439A829A8A20398A439A829A8A0821EF
S11301700A439A829A8A04210A439A829A8A022119
S11301800A439A821A00D3689B07FCD54E4B9968A0
S11301900222FF320A439A605A684C490A405A6064
S11301A05A684B490A405A605A684A490A405A6098
S11301B05A6849490A405A605968802292020A439F
S11301C05A605968802252020A435A605A68434965
S11301D01140A022D2000A435A605A680F218A4370
S11301E00E390A435A601A005378DB09FCD1364AA7
S11301F053888221C9010B435380304AD368DB06FC
S1130200FCD502222D4B9A841A00D368DB06FCD558
S11302102A4BDA6A92019209F821C9050A43DA6283
S1130220DA6A2F4911402F4A0A43DA62DA6A120C59
S113023012042D490A43DA621A00D368DB06FCD59E
S11302401E4A938C29490B4393841F4B5A681F49B8
S11302500A405A605A681E490A405A605A681D4941
S11302600A405A605A681C490A405A6059688022F8
S113027092020A435A605968802252020A435A6021
S11302805A6816491140E022D2000A435A605A685B
S11302900F218A435A601A005378DB09FCD1074BBB
S11302A01A6A13490A401A621A6A80218A431A6236
S11302B0104B984710BDC046004000410008004064
S11302C0FFEFFFFFFFF8FFFF000C0040FFFFDFFF21
S11302D0FFFFEFFFFFFFF7FFFFFFFBFFFFE0FFFF65
S11302E0FFFF00FC0000FF01B90500000408000046
S11302F0FFFCFFFF19010000084843681F220A4061
S11303001202074919401143416043680F22934385
S1130310436002005378DB09FCD17047000C0040B5
S1130320FFE0FFFFFEE70000F8B52A4A2A4B9A4295
S113033011D01A00294B9A420DD2294A03339B1A31
S11303409B0801339B000022234822498C58845087
S113035004329A42FAD1234A234B9A420AD2D34313
S113036021495B1803218B4304339B18002102C2EB
S11303709342FCD11D4AFF211D4B8B439360FD39F1
S113038090235B001B4AD1501B4AD3780325AB430F
S113039002242343D370D3780C27BB43082633436A
S11303A0D370164B987B30229043202210439873CD
S11303B0997BB943314399739A7BAA4322439A7335
S11303C00F4A536880210B4353600E4B98470E4BE2
S11303D09847FEE7240600000000002034040020B3
S11303E004000020340400207804002000ED00E024
S11303F0000000000070004100500041004800412E
S113040000400041590400001D040000014A024B51
S11304101A60704740420F000000002010B5054BE1
S11304209847054C2000054B984706212000044BB3
S11304309847FEE70D040000500400202D01000041
S1130440F902000010B50248024B984710BDC0469F
S1130450500400201501000070B50D4E0D4D002410
S1130460AD1BAD1005D0A300F35801349847A54245
S1130470F9D100F0C3F8084E084D0024AD1BAD10AF
S113048005D0A300F35801349847A542F9D170BDB3
S11304900806000008060000080600001406000014
S11304A0034B10B5002B02D0024800F005F810BD34
S11304B000000000C904000010B501000023002260
S11304C0002000F01FF810BD70B5094B094CE41A68
S11304D0A41009D0084AA518AD00ED182B68013CFA
S11304E09847043D002CF9D100F094F870BDC04643
S11304F02006000024060000FFFFFF3F7047C046AF
S11305007047C046F0B54E464546DE465746E0B510
S1130510364D83B00600286898460F009146FFF7D1
S1130520EDFF334B1C68A4235B00E058002852D035
S113053043681F2B13DC5A1C0192002E28D1019A08
S113054002339B0042601F502868FFF7D9FF002048
S113055003B03CBC90469946A246AB46F0BD254B41
S1130560002B3DD0C820400000E000BF002837D059
S1130570A42200235200A15843600160A0504032DD
S1130580835004328350013301930023002ED6D0CC
S11305909A00924682444A46882154466250C422B4
S11305A05200914681444A468739994012688B46E5
S11305B00A4394464A4661461160842241465200E9
S11305C0A150022EBBD102005C468D32FF3211686D
S11305D00C431460B3E720004D30FF30E050A7E730
S11305E02868FFF78DFF01204042B1E73004002066
S11305F0F80500000000000008000020F8B5C0461F
S1130600F8BC08BC9E467047A1040000DD00000051
S113061045040000F8B5C046F8BC08BC9E467047C7
S1070620B50000001D
S113062440420F000000000000000000F40200201B
S11306345C030020C403002000000000000000004C
S113064400000000000000000000000000000000A2
S11306540000000000000000000000000000000092
S11306640000000000000000000000000000000082
S11306740000000000000000000000000000000072
S11306840000000000000000000000000000000062
S11306940000000000000000000000000000000052
S11306A40000000000000000000000000000000042
S11306B40000000000000000000000000000000032
S11306C40000000000000000000000000000000022
S11306D401000000000000000E33CDAB34126DE6BF
S11306E4ECDE05000B000000000000000000000028
S11306F400000000000000000000000000000000F2
S113070400000000000000000000000000000000E1
S113071400000000000000000000000000000000D1
S113072400000000000000000000000000000000C1
S1070A545404002022
S9030000FC
